:0A0000000C94C6000C940F040C943D
:10000A0012040C9400000C9400000C9400000C9450
:10001A0000000C9400000C9400000C9400000C9456
:10002A0000000C9400000C9400000C9400000C9446
:10003A0000000C9400000C9400000C9400000C9436
:10004A0000000C9400000C9400001027E8036400E0
:10005A000A00010000100001100001000000000069
:10006A000000000000005072657373202A20746F2C
:10007A0020656E74657200456E7465726564204908
:10008A00443A00257500456E746572205061737399
:10009A00776F72643A0A00596F7520617265204160
:1000AA00646D696E0057656C636F6D6521005072EF
:1000BA006F6600446F6F72206973206F70656E6996
:1000CA006E67005072657373202320746F20457821
:1000DA006974004D696E61004162646F0053616C1E
:1000EA006168005A616B690057726F6E67207061B0
:1000FA007373776F726400496E76616C6964204924
:10010A004400456E7465725F494400456E746572B9
:10011A00204F6C642D504300456E746572204E6505
:10012A00772D50430052652D656E746572205043D9
:10013A00004368616E676500537563636573736630
:10014A00756C6C7900456E7465722050433A2000D4
:10015A00456E7465722D6E65772050433A20000013
:10016A0080C001002D4E414E00494E4600000A0053
:10017A0004006600020072016A01010079016C0143
:10018A000000F894EE27ECBBF1E0FBBFEBBFE5BF44
:10019A008DE0A2E0BB27ED938A95E9F780E094E031
:1001AA00A0E6ED930197E9F7E8E7F1E085919591EB
:1001BA00009761F0A591B59105901590BF01F001E6
:1001CA0005900D920197E1F7FB01F0CFEFE5EDBF46
:1001DA00E4E0EEBFC0E6D1E00C9442012497EFE4DC
:1001EA00E883E0E0E983EAEAEA83E1E0EB8367D6C1
:1001FA000BEC10E021E830E04CEB52E0EFE6F0E0E7
:10020A001ED588D6AE2FD4D1E0E7F0E018D56FD648
:10021A00AE2FCED1EEE7F0E018D57CD6AE2FC8D1FE
:10022A00EFE7F0E012D563D6AE2FC2D1E0E8F0E0F6
:10023A0012D570D6AE2FBCD1E1E8F0E00CD557D676
:10024A00AE2FB6D1E2E8F0E00CD564D6AE2FB0D12D
:10025A00E3E8F0E006D54BD6AE2FAAD1E4E8F0E009
:10026A0007D558D6AE2FA4D1E5E8F0E001D53FD6A0
:10027A00AE2F9ED12BD62A960895E7E0E4BBE8EF8D
:10028A00E5BB8A98929A8B98939A899A91988D9AB3
:10029A009598E5B7E260E5BFE5B7EE7FE5BFE5B75C
:1002AA00E860E5BFE5B7EB7FE5BF7894EBB7E064BC
:1002BA00EBBFEBB7E068EBBFA0E11FD38FDFDFD462
:1002CA000DD1EA30E9F7E4D4ECD4E0936E01F0936F
:1002DA006F0112D515D5E0916E01F0916F0115D518
:1002EA00A8EEB3E023D618D5AF36E0E0BE0749F052
:1002FA0018D539F01BD529F01ED519F021D509F0EA
:10030A00E4C0D1D2E0E9F0E020D5F6D4E7D0F0E0BD
:10031A00E0936001F0936101E1D0F0E0E0936201C3
:10032A00F0936301DBD0F0E0E0936401F0936501A0
:10033A00A0916001B0916101E4E60E9476077E2FE8
:10034A008F2FA0916201B0916301EAE00E947607C3
:10035A007E0F8F1FA0916401B0916501E1E00E94B8
:10036A007607E70FF81FE0936601F0936701C8D498
:10037A00E0916601F0916701C8D4CED40DD14E2E1A
:10038A005524CAD4E8D4A8EEB3E0D0D5ECD429F4E5
:10039A00C3D4AF36E0E0BE0709F01BC0EBD4EED4FD
:1003AA00F1D4F7D4E8EBF0E0D0D4E8D4919AEDEBAD
:1003BA00F0E0CBD4A1D463D49FD4EDECF0E0C5D463
:1003CA00ECD419F470D2ACD103C06DD2919877CF26
:1003DA007BC0C9D411F4A5D409F019C064D2D2D40F
:1003EA00D8D4EDEDF0E0B1D4C9D4EDEBF0E0ADD462
:1003FA00919A45D481D4EDECF0E0A7D4CED419F487
:10040A0052D2E4D003C04FD2919859CF5DC0ABD439
:10041A0011F48CD409F019C046D2B4D4BAD4E2EE9D
:10042A00F0E093D4ABD4EDEBF0E08FD4919A27D4DB
:10043A0063D4EDECF0E089D4B0D419F434D2C6D048
:10044A0003C031D291983BCF3FC08DD411F473D4FD
:10045A0009F019C028D296D49CD4E7EEF0E075D4FE
:10046A008DD4EDEBF0E071D4919A09D445D4EDEC3A
:10047A00F0E06BD492D419F416D2A8D003C013D2E8
:10048A0091981DCF21C06FD411F45AD409F019C024
:10049A000AD278D47ED4EDEEF0E057D46FD4EDEBE7
:1004AA00F0E053D4919AEBD327D4EDECF0E04DD49D
:1004BA0074D419F4F8D18AD003C0F5D19198FFCE3B
:1004CA0003C071D474D4FBCE07C077D470D479D466
:1004DA00A8EEB3E02BD5F3CEF2CEFFCFA898A99A17
:1004EA00AA9AE3B3E63F29F49B9BFECFE1E0089585
:1004FA0014C0EE3E29F49C9BFECFE4E008950DC0A3
:10050A00EE3D29F49D9BFECFE7E0089506C0EE3B41
:10051A0021F49E9BFECFEAE00895A89AA998AA9A88
:10052A00E3B3E53F29F49B9BFECFE2E0089514C0B4
:10053A00ED3E29F49C9BFECFE5E008950DC0ED3D0C
:10054A0029F49D9BFECFE8E0089506C0ED3B21F417
:10055A009E9BFECFE0E00895A89AA99AAA98E3B3D1
:10056A00E33F29F49B9BFECFE3E0089514C0EB3EE2
:10057A0029F49C9BFECFE6E008950DC0EB3D29F4DB
:10058A009D9BFECFE9E0089506C0EB3B21F49E9BBC
:10059A00FECFEBE00895A2CF1A930A938D01E19959
:1005AA00FECF1FBB0EBBE09AEDB3099119910895D6
:1005BA0088D41A2F2C813D81E199FECF3FBB2EBBF7
:1005CA001DBBE29AE19A84D4269608956CD1ECE098
:1005DA00F1E0BBD3FAD3FF93EF93FCD3AF91BF9172
:1005EA00EA0FFB1FFF93EF9379DFF0E0AF91BF9122
:1005FA00EA0FFB1FF4D380D383D3F6D386D3A8EEB6
:10060A00B3E094D4F6D3AE37E0E0BE0739F0F6D3C0
:10061A0029F0F9D319F0FCD309F07AC044D1E5E105
:10062A00F1E093D369D366247724CFD3FF93EF9372
:10063A00D1D3AF91BF91EA0FFB1FFF93EF934EDF28
:10064A00F0E0AF91BF91EA0FFB1F3F01D2D3A4DFC5
:10065A004E2E5524CED37FD353D3F30156D3A8EECF
:10066A00B3E064D44614570409F04BC01CD1E2E24B
:10067A00F1E06BD341D3A9D3FF93EF93ABD3AF91FF
:10068A00BF91EA0FFB1FFF93EF9328DFF0E0AF91D2
:10069A00BF91EA0FFB1F4F0133D3F40136D36ED358
:1006AA00EFE2F1E052D328D390D3FF93EF9392D3A2
:1006BA00AF91BF91EA0FFB1FFF93EF930FDFF0E0BB
:1006CA00AF91BF91EA0FFB1F5F011AD3F5011DD34A
:1006DA00A8EEB3E02BD48A149B0461F4E4D084D34B
:1006EA009CD3A1D39AD3A5D307D3E2E4F1E02DD3C7
:1006FA00A6D306C058D365D3A2D3A8EEB3E016D4C6
:10070A0006C051D35ED39BD3A8EEB3E00FD407C083
:10071A0054D34DD356D393D3A8EEB3E007D4089558
:10072A0029D32CD3EFE4F1E010D3E6D24ED3FF93D2
:10073A00EF9350D3AF91BF91EA0FFB1FFF93EF9353
:10074A00CDDEF0E0AF91BF91EA0FFB1F3F01AFE6AC
:10075A00B0E022DF4E2E5524A0E7B0E01DDFAFEF58
:10076A00EA9FF0014E0E5F1ECBD2F301CED2A8EE65
:10077A00B3E0DCD36414750409F044C089D2BCD256
:10078A0090D22DD336D3AF36E0E0BE0759F031D33D
:10079A00AE37E0E0BE0731F031D321F034D311F0A7
:1007AA0037D341F5ADD220D3B0D2E8D2EAE5F1E0B1
:1007BA00CCD2A2D20AD3FF93EF930CD3AF91BF91BD
:1007CA00EA0FFB1FFF93EF9389DEF0E0AF91BF9131
:1007DA00EA0FFB1F6F0194D2F60197D2CFD204D34E
:1007EA0032D321D330D325D387D2E2E4F1E0ADD29C
:1007FA0026D307C0E2D2DBD2E4D221D3A8EEB3E0FB
:10080A0095D307C0D0D2DDD2B9D2A8EEB3E08ED349
:10081A0087DF08951ED384DF02C01BD3D7DEE99198
:10082A00EFBFF991E991B991A9919991899179913A
:10083A006991F9901990099018951A931A2FEBB3A8
:10084A00EF70AE2FE12FE07FEA2BEBBB8DE08A95AC
:10085A00F1F7DA9A8DE08A95F1F7DA988DE08A95C0
:10086A00F1F775C0AA93A881E8DFE881E295E883E9
:10087A00A881E3DF85E88A95F1F7219608951A930E
:10088A000A931A2F0A81E12FF0E0EE58FE4FE08119
:10089A00E00FAE2FE7DF00937601109377011981FD
:1008AA00088123960895A2E0E2D2ACE0DBDFA1E062
:1008BA00DED2E0E0E0937701E093760108951A939F
:1008CA001A2F1A3031F0E0917801A0917601AE1713
:1008DA0050F0E0E0EA93A0917701AF5FA09377012F
:1008EA00CEDF1A30A1F1E0917601EF5FE093760155
:1008FA00D89AA12FB7DFD8982AC01A931A2FEAB329
:10090A00E06FEABBD29AD09AD19ADA98D898D99855
:10091A0010937801E12FE058E0937401E12FE0543D
:10092A00E0937501A4E1B0E001D3A5D2A4D2A3D289
:10093A00A0E283DF88EC90E00197F1F7A8E292DF6A
:10094A00A4E090DFA5E88EDFA6E08CDFACDF19918A
:10095A000895BA93AA93A991B991EE27FF276D91A9
:10096A00662311F03196FBCF0895BA93AA93AA276A
:10097A00BB27E991F9910590002011F01196FBCF60
:10098A00FD010895BA93AA93269799D210E0AC85EF
:10099A00BD85E0E0F0E0ED93FC93EA89FB893196AE
:1009AA00EA8BFB8B3197E4912E2FE03009F40BC1CF
:1009BA00E12FE03031F4253211F411E001C062D2A6
:1009CA0001C1E130A1F4253211F45CD2FAC012E07F
:1009DA0040E000E02D3211F401E0F4C02B3211F4B2
:1009EA004BE2F0C0203211F440E2ECC002C0E23027
:1009FA0039F450E013E0203311F40068E3C003C077
:100A0A00E33009F0DFC0203310F02A3308F007C0C2
:100A1A00AAE05A9F502DE22FE0535E0FD3C0E22F77
:100A2A00E33639F436D2E889F989A481AA9337D210
:100A3A00C8C0E33729F42DD238D28BDF1E2F07C066
:100A4A00E03749F426D231D290DF1E2F08600260C7
:100A5A000F7730E03AC0E43611F0E93611F4046059
:100A6A0002C0E53731F4E4E5F0E0EE83FF8315E0F8
:100A7A000CC0E83511F4086003C0E83709F0A1C0DA
:100A8A00EEE5F0E0EE83FF8314E002FF15C001D229
:100A9A00A889B9891496ED91FD91EA87FB87AB8500
:100AAA00AA2322F41AD2EA87FB874DE2403011F0DA
:100ABA001F5F01C00B7F09C0ECD1A889B9891496C0
:100ACA00ED91FC911197EA87FB8700FD10C015177D
:100ADA0070F407FF08C002FF04C00B7F242F1150D7
:100AEA0001C020E301C020E2CDD15150F0CF312F17
:100AFA0001FF16C0303099F003FF06C0EE81FF8176
:100B0A002591EE83FF8305C0AE81BF812D91AE830F
:100B1A00BF83B8D1503009F051503150EBCF48C0A3
:100B2A0020E3EE81FF81F9D1E887F987EE81FF8121
:100B3A003296EE83FF83E885F985AA85BB85AE17D1
:100B4A00BF0750F02F5FA885B985EA85FB85EA1BA8
:100B5A00FB0BEA87FB87EFCF2A3328F003FF02C09B
:100B6A00295F01C0295D04FD19C0213320F4A8853D
:100B7A00B985119709F409C0531710F000FF01C095
:100B8A0011C020E207FF0AC020E3006102FF06C08D
:100B9A000B7F4A9384D1503009F0515073D15030B1
:100BAA0009F051503150A885B985129708F0B8CF8D
:100BBA0000FF07C0503029F05150E0E2EA936FD1AC
:100BCA00F9CF10E0EACEAC85BD85ED91FD917ED1DD
:100BDA006496089576D18D013C81A32F70DED801E9
:100BEA00ED91FD913196FE93EE9372D1259608957B
:100BFA00FF92F82E26971A930A93DE011496002480
:100C0A00AF0DB01D8D01E0E0EC83ED83EE83EF8341
:100C1A00DE0118960024AF0DB01DED91FD91FA93F7
:100C2A00EA931A930A93EFEEF5E0FA93EA93DE0158
:100C3A001896A8DE198108812896FF900895FA93DC
:100C4A00EA93D801EFEFF0E00895FA93EA93D90115
:100C5A00EFEFF0E00895FA93EA93DA01EFEFF0E0AC
:100C6A000895FA93EA93AA85BB85EFEFF0E0089519
:100C7A00FA93EA93A885B985EFEFF0E0089513DEB9
:100C8A00E0E7F0E0FA93EA9380E0B2DF2296089573
:100C9A000ADEE1E8F0E0FA93EA9380E0A9DF22961F
:100CAA0008951CDCF0E0E0936801F093690116DC1A
:100CBA00F0E0E0936A01F0936B0110DCF0E0E0935E
:100CCA006C01F0936D01A0916A01B0916B01EAE0A9
:100CDA000E947607A0916C01B0916D01EA0FFB1F8B
:100CEA007E2F8F2FA0916801B0916901E4E60E94DE
:100CFA007607E70FF81F0895E0E0EA93A1E0BFCD79
:100D0A00EDE8F0E0FA93EA9308956627772709D188
:100D1A0084E06EDF26960895A0916E01B0916F016E
:100D2A000895FADFAE37E0E0BE070895F5DFA03890
:100D3A00E0E0BE070895F0DFA238E0E0BE070895BC
:100D4A00EBDFA438E0E0BE070895FA93EA9380E067
:100D5A004FDF2296089511961FDCAFEFEA9FF0014C
:100D6A004E0E5F1E0895A0916601B09167014A1662
:100D7A005B06089598DDE1EAF0E0E7CFA8EEB3E07C
:100D8A00D5D091CDE5E0EA93A0E079DDEFEAF0E095
:100D9A00DCCFE7E0EA93A1E072CDA8EEB3E0C6D0DB
:100DAA009DDBEA3008957FDDE2EFF0E0CECF959A41
:100DBA00A8EEB3E0BBD09598089575DDE1E0F1E0C7
:100DCA00C4CFA8EEB3E0B2D0F2CF88DBA4E6EA9FA4
:100DDA00F001089583DBAAE0EA9FF0010895E09309
:100DEA007001F09371010895E0917001F091710121
:100DFA000895A0917001B09171010895FADFA038A9
:100E0A00E0E0BE070895F5DFA238E0E0BE070895E6
:100E1A00F0DFA438E0E0BE070895FA93EA93D4011C
:100E2A00EFEFF0E0089576D0AE2FC2DBDDDF31962A
:100E3A0008955DD0AE2FBCDBEBE3F1E086CFA8EEE0
:100E4A00B3E074D01CCFFA93EA93D601EFEFF0E047
:100E5A0008950A921A92FA926A937A938A939A93C3
:100E6A00AA93BA93EA93FA93EFB7EA930895FADC4E
:100E7A00A3E0B0E05BC0A0E3E0DC88EC90E001977F
:100E8A00F1F708952A93AD85BE85EF85F88909950E
:100E9A000895E889F9893497E88BF98B0895AD8527
:100EAA00BE85EF85F88909950895A889B9891496A8
:100EBA00ED91FD91EE83FF83AE81BF8108955A9330
:100ECA004A933A932A931A930A9308955D814C811F
:100EDA003B812A81198108810895F195E195F040B5
:100EEA0008956E2F6A9FF0016B9FF00D08950024FC
:100EFA00112490E1AA0FBB1F001C111C0E1A1F0A15
:100F0A0018F40E0E1F1E01C0A1609A9599F7FD01F3
:100F1A00D0010895ECDFFD0108950590F491E02DCC
:100F2A0008957A936A93FA93EA930895109639F09A
:100F3A00A89580ED97E00197F1F71197C9F7089501
:00000001FF
